:100000000C94D4000C94F7120C94D0120C94A912F6
:100010000C9482120C94FC000C94FC000C945B1267
:100020000C94FC000C94FC000C94700F0C94DF0FEB
:100030000C94FC000C94FC000C94FC000C94FC0050
:100040000C94FC000C94FC000C94FC000C94FC0040
:100050000C94FC000C94FC000C94FC000C94111209
:100060000C94FC000C94FC000C94FC000C94FC0020
:100070000C94FC000C94FC000C94FC000C94FC0010
:100080000C94FC000C94FC000C94FC000C94FC0000
:100090000C94FC000C94FC000C94FC000C94FC00F0
:1000A0000C94FC000C94FC000C94FC00000000007C
:1000B0002300260029002C002F000000000025004E
:1000C00028002B002E0031000000000200090F0064
:1000D00000030401000C000000000000000000000C
:1000E00000000000000000080B00020202000009EE
:1000F0000400000102020000052400100105240193
:1001000001010424020605240600010705810310ED
:10011000004009040100020A000000070502024035
:1001200000000705830240000004030904120100D7
:1001300002EF020140412337800001010203014127
:10014000726475696E6F204C4C430041726475692E
:100150006E6F204D6963726F00000000002400275D
:10016000002A002D003000040802011040804010D9
:1001700020408040800802040180402010020110CD
:1001800080102040402004040404040304050202FB
:100190000202040302020202060606060606040420
:1001A0000202020404001E1311241FBECFEFDAE086
:1001B000DEBFCDBF11E0A0E0B1E0EEE7FDE202C09E
:1001C00005900D92A83AB107D9F724E0A8EAB1E06A
:1001D00001C01D92AD39B207E1F710E0C4EDD0E0E7
:1001E00004C02197FE010E949D16C33DD107C9F7A7
:1001F0000E9485130C94BD160C940000E82FF0E0CB
:10020000EE0FFF1FE05FFE4F718360838230D9F0F5
:1002100028F4882341F0813071F008958330D9F0BB
:10022000843009F10895809169008C7F816080930A
:100230006900E89A089580916900837F84608093C3
:100240006900E99A0895809169008F7C80618093AC
:100250006900EA9A0895809169008F7380648093A1
:100260006900EB9A089580916A008F7C8061809389
:100270006A00EE9A0895FC018091CE01882311F165
:100280003FB7F89482E08093E9002091F200822F3A
:1002900090E01816190614F481E090E0882339F0F4
:1002A000289A44E64093CD014091F10040832223F7
:1002B00039F02091F200211103C02BE62093E800D1
:1002C0003FBF08958FEF9FEF08952FB7F89483E015
:1002D0008093E9009091E800892F807295FF04C017
:1002E0009091F20080E4891B2FBF08958091C50191
:1002F00081110DC082E08093C10184E08093C2012E
:100300001092C4011092C30181E08093C50181EC79
:1003100091E008954091BA015091BB012091B8013C
:100320003091B90142175307B4F49091E8009570E9
:10033000E1F39091E80092FD19C08093F100809163
:10034000BA019091BB0101968F739927892B19F4FB
:100350008EEF8093E8008091BA019091BB010196E5
:100360009093BB018093BA0181E0089580E00895E5
:10037000EF92FF920F931F93CF93DF93F82E192FD5
:10038000E62E042F81E0860F880F0E948A0183E009
:100390000E948A01CF2DD12FEC0EFD2EF11CCE151F
:1003A000DF05B9F007FF13C0FE0184910E948A01A6
:1003B000182F80E00E948A01812321968111EFCFBE
:1003C000DF91CF911F910F91FF90EF900895888159
:1003D000EDCF81E0F5CFDF92EF92FF920F931F9365
:1003E000CF93DF93D82E8A01EB017B01E40EF51E3B
:1003F000CE15DF0559F0D7FE12C0FE0184910E9490
:100400008A0121968111F4CF0FEF1FEFC801DF9110
:10041000CF911F910F91FF90EF90DF900895888109
:10042000EECF0F931F93CF93DF931F92CDB7DEB71D
:1004300082E0898342E450E067EE70E080E80E9449
:10044000EB010E947601DC0112960D911C910115C1
:10045000110589F0D801ED91FC910280F381E02D26
:10046000BE016F5F7F4FC801099597FD04C0F80179
:1004700000851185ECCF89810F90DF91CF911F917D
:100480000F910895615030F02091F100FC0120831C
:100490000196F8CF289A84E68093CD010895AF9213
:1004A000BF92CF92DF92EF92FF920F931F93CF9361
:1004B000DF936C017B018B01040F151FEB015E01C3
:1004C000AE18BF08C017D10759F06991D601ED9158
:1004D000FC910190F081E02DC6010995892B79F7F7
:1004E000C501DF91CF911F910F91FF90EF90DF90A9
:1004F000CF90BF90AF900895CF93DF931F92CDB769
:10050000DEB76983DC01ED91FC910280F381E02D7F
:1005100041E050E0BE016F5F7F4F09950F90DF9182
:10052000CF91089583E08093E9008091F2008823C1
:1005300019F08AE38093E80008950E94650190E035
:100540000895CF93DF931F92CDB7DEB7FC0184856A
:10055000958597FD08C02FEF3FEF358724870F90D3
:10056000DF91CF910895CE0101960E943B01019742
:1005700019F4898190E0F3CF8FEF9FEFF0CF0F93C5
:100580001F93CF93DF931F92CDB7DEB78C01FC0191
:100590008485958597FF0BC0CE0101960E943B0193
:1005A000019771F4898190E0F80195878487F801BB
:1005B000848595850F90DF91CF911F910F910895BC
:1005C0008FEF9FEFF1CFFC018485958597FD0BC0E0
:1005D0009FB7F89482E08093E9008091F2009FBF7A
:1005E00090E0019608959FB7F89482E08093E90027
:1005F0008091F2009FBF90E0089581508F3008F005
:1006000047C0E82FF0E0E95FFC4F0C949D162403EF
:10061000280316031C0320034803480348032B0345
:100620003103350339033F034803430380918000BE
:100630008F77809380000895809180008F7DF9CF1F
:1006400080918000877FF5CF84B58F7784BD089532
:1006500084B58F7DFBCF809190008F778093900041
:100660000895809190008F7DF9CF80919000877FD1
:10067000F5CF8091C0008F778093C000089580915E
:10068000C0008F7DF9CF8091C200877F8093C20028
:1006900008951F93CF93DF93282F30E0F901E8539B
:1006A000FF4F8491F901E959FE4FD491F901EA57BE
:1006B000FE4FC491CC23A9F0162F81110E94FD0298
:1006C000EC2FF0E0EE0FFF1FE654FF4FA591B49121
:1006D0008FB7F894EC91111108C0D095DE23DC930C
:1006E0008FBFDF91CF911F910895DE2BF8CFCF936D
:1006F000DF9390E0FC01E959FE4F24918A579E4F09
:10070000FC0184918823D1F090E0880F991FFC01AF
:10071000E75AFE4FA591B491FC01E654FF4FC591F5
:10072000D49161110EC09FB7F8948C91E22FE0959F
:100730008E238C932881E223E8839FBFDF91CF91A2
:1007400008958FB7F894EC91E22BEC938FBFF6CF1E
:100750003FB7F8948091B4019091B501A091B60192
:10076000B091B70126B5A89B05C02F3F19F001969F
:10077000A11DB11D3FBFBA2FA92F982F8827BC01FB
:10078000CD01620F711D811D911D42E0660F771F23
:10079000881F991F4A95D1F708958F929F92AF9223
:1007A000BF92CF92DF92EF92FF924B015C010E94C9
:1007B000A8036B017C010E94A8036C197D098E09B6
:1007C0009F09683E734081059105A8F321E0821AD4
:1007D0009108A108B10888EEC80E83E0D81EE11C7C
:1007E000F11C81149104A104B10429F7FF90EF904A
:1007F000DF90CF90BF90AF909F908F9008958F9291
:100800009F92AF92BF92CF92DF92EF92FF920F939F
:100810001F93CF93DF936C017B018A0180910B01C1
:10082000882309F45CC08091CE01882309F457C065
:100830008091BE0180FF05C08091E00082608093BE
:10084000E000E801B12C8AEFA82E93E0892E2AE37C
:10085000922E209711F4BB20D9F10E9465018111DD
:100860000AC0AA94AA20D9F161E070E080E090E08B
:100870000E94CD03EECF8C171D0611F00CF08C2FCB
:100880009FB7F8948092E9002091E80025FD02C00E
:100890009FBFDFCF282F30E0C21BD30BF701815061
:1008A00020F041914093F100FACFE20EF31EBB20FD
:1008B00021F09092E800B12CEBCF8091E80085FD0B
:1008C000E7CF9092E800BB24B394209709F3F3CFCD
:1008D0005D9A84E68093BD01101611063CF081E01C
:1008E00090E0F6019383828310E000E0C801DF917D
:1008F000CF911F910F91FF90EF90DF90CF90BF901D
:10090000AF909F908F9008952FB7F8946091B001A9
:100910007091B1018091B2019091B3012FBF089500
:1009200008958FB7F8948091A9018FBF089561E071
:10093000FC0184810E9449038091A80181111092D9
:10094000A80108958EBD00000DB407FEFDCF8EB541
:1009500008958FEF0C94A2040F931F93CF93DF930E
:10096000EC010E9484048B010E94A9048F3F69F06E
:100970000E948404601B710B6C177D07A8F380E054
:10098000DF91CF911F910F91089581E0F9CF8CBD38
:100990009DBD0895CF93DF93EC018091A801811153
:1009A00009C081E08093A8018091210490912204E4
:1009B0000E94C70460E08C81DF91CF910C944903C1
:1009C0008F929F92AF92BF92FF920F931F93CF93FC
:1009D000DF93EC01F62E49015A018E81882389F0BC
:1009E0008F8198859C012F5F3F4F38872F838230FE
:1009F000924018F40E94A904F3CFCE010E949704FC
:100A00001E82CE010E94CA048CE291E00E94AC04D6
:100A10008F2D80640E94A20408E110E0D501C4017A
:100A2000002E04C0B695A795979587950A94D2F79E
:100A30000E94A20408501109083F8FEF180771F7B0
:100A400085E9FF2021F028E087E8F2128FEF0E946D
:100A5000A20410E00E94A9048A8787FF04C01F3FF8
:100A600011F01F5FF7CFDF91CF911F910F91FF9092
:100A7000BF90AF909F908F900895AF92BF92CF920A
:100A8000DF92EF92FF920F931F93CF93DF93EC01CE
:100A90006901C801820F931F8130924050F58E8109
:100AA000882379F088819981AA81BB818417950771
:100AB000A607B70731F48F819885C816D90608F0C4
:100AC00042C0488359836A837B838B85833039F0A6
:100AD00089E0440F551F661F771F8A95D1F79A0149
:100AE000AB0161E1CE010E94E004882389F083E03C
:100AF0008D83CE010E94970480E0DF91CF911F91FA
:100B00000F91FF90EF90DF90CF90BF90AF9008953E
:100B10000E9484045B010E94A9048A878F3F69F4C4
:100B20000E9484046A197B096D327140A0F38FE042
:100B30008D83CE010E949704DCCF8E3F89F4188606
:100B40001F8281E08E838F8198858C159D0550F4DE
:100B50000E94A9048F819885019698878F83F3CF8F
:100B60008DE0E6CF6701E00EF11E0E94A904F601B8
:100B700081936F01EE15FF05C1F78F819885080FEE
:100B8000191F18870F838985882319F001151240D2
:100B9000A0F08E81882389F08F8198859C012F5F3A
:100BA0003F4F38872F838230924018F40E94A90467
:100BB000F3CFCE010E9497041E8281E09ECFCF9298
:100BC000DF92EF92FF920F93CF93DF93EC016901D5
:100BD00082E1411551056105710599F08B858330DE
:100BE00039F089E0440F551F661F771F8A95D1F7AA
:100BF0009A01AB0168E1CE010E94E004882319F05C
:100C000084E08D832DC08EEF0E94A20476018EEFCA
:100C1000D81AF70181917F010E94A204EC14FD040F
:100C2000C1F78FEF0E94A2048FEF0E94A2040E94DE
:100C3000A9048A878F71853071F4011116C0CE0125
:100C40000E94970481E0DF91CF910F91FF90EF9088
:100C5000DF90CF90089581E18D83CE010E949704AB
:100C6000CE010E94970480E0EECF88E592E00E94DA
:100C7000AC04811102C085E1C4CF20E030E0A901BD
:100C80006DE0CE010E94E004882311F084E1B9CF29
:100C90000E94A9048111FACFD2CF0F934091AB01EA
:100CA0005091AC016091AD017091AE0141155105BB
:100CB0006105710599F0082F2FEC31E08091CF0389
:100CC0009091D0030E94DF05882349F01092AB0178
:100CD0001092AC011092AD011092AE0181E00F9123
:100CE00008950F93CF93C82F8091AA01811105C059
:100CF000C1E08C2FCF910F91089540910C0150913C
:100D00000D0160910E0170910F010C2F2FEC31E05D
:100D10008091CF039091D0030E94DF05811102C022
:100D2000C0E0E7CFCC2321F381E00E944D06882369
:100D3000B9F31092AA01DDCF8F929F92AF92BF922A
:100D4000EF92FF920F931F93CF934B015C01C42F3F
:100D500080910C0190910D01A0910E01B0910F01B5
:100D600088159905AA05BB0551F181E00E9471061D
:100D700081110BC080E0CF911F910F91FF90EF90F8
:100D8000BF90AF909F908F9008958FECE82E81E0F8
:100D9000F82E00E012E030E020E0B501A4018091DF
:100DA000CF039091D0030E943D05882319F38092D0
:100DB0000C0190920D01A0920E01B0920F01409192
:100DC000AA014C2B4093AA0181E0D5CF8F929F922C
:100DD000AF92BF92CF92DF92EF92FF92CF9323E236
:100DE00034E03093D0032093CF03882309F46DC0FF
:100DF00040E060E070E0CB010E949C0681110BC0D6
:100E000080E0CF91FF90EF90DF90CF90BF90AF90B8
:100E10009F908F90089580918D038F7789F78091AF
:100E2000990390919A03A0919B03B0919C038436FF
:100E30009105A105B10520F3C0909503D0909603CC
:100E4000E0909703F0909803C114D104E104F104F9
:100E5000B9F240E0C701B6010E949C06882381F2E6
:100E60008091DA019091DB018115924049F6A091C1
:100E7000DF01AA2329F26091DD017091DE01611585
:100E8000710509F4BDCF2091DC01222309F4B8CF0C
:100E9000A09341042093330490E080E030E0E1E04F
:100EA000F0E0C82FAF01082E02C0440F551F0A946E
:100EB000E2F72417350769F041E0480F01968930C1
:100EC000910579F740933C049BCFC12CD12C76013E
:100ED000C0CF80933C042091E5013091E60150E0C1
:100EE00040E02115310541F42091F3013091F401E6
:100EF0004091F5015091F60120933404309335046C
:100F0000409336045093370446015701860E971ECE
:100F1000A11CB11C8092420490924304A09244040C
:100F2000B0924504E091E001F091E101F0934804B2
:100F3000E0934704B0E00E94A316DC01CB01880DCA
:100F4000991DAA1DBB1D8093490490934A04A09348
:100F50004B04B0934C0425E0EE0FFF1F2A95E1F7F8
:100F6000E150FE4FEF2FFF27E6958E0F9F1FA11D2B
:100F7000B11D80933D0490933E04A0933F04B09331
:100F800040048090E2019090E301B12CA12C8114E7
:100F9000910441F48090EF019090F001A090F10154
:100FA000B090F201C81AD90AEA0AFB0AC80CD91C87
:100FB000EA1CFB1C04C0F694E794D794C794CA9526
:100FC000D2F7C0923804D0923904E0923A04F092F9
:100FD0003B0485EFC8168FE0D806E104F10428F43D
:100FE0008CE08093460481E00CCF80E125EFC216AF
:100FF0002FEFD206E104F104A0F38091FB01909160
:10100000FC01A091FD01B091FE01809349049093F1
:101010004A04A0934B04B0934C0480E2E2CF4F9279
:101020005F926F927F928F929F92AF92BF92CF9278
:10103000DF92EF92FF920F931F93CF93DF93EC0118
:10104000423051056105710590F480E0DF91CF9148
:101050001F910F91FF90EF90DF90CF90BF90AF90D6
:101060009F908F907F906F905F904F9008958985AB
:101070009A85AB85BC850196A11DB11D8417950786
:10108000A607B70710F3CB88DC88ED88FE888F8928
:10109000803109F042C0BB27A72F962F852F48012A
:1010A00059012A013B01C80ED91EEA1EFB1E809180
:1010B0000C0190910D01A0910E01B0910F01C81685
:1010C000D906EA06FB0699F58F898031C1F5B3018F
:1010D000A201552766277727440F551F41535E4FBE
:1010E000FA01918280828091AA0181608093AA0195
:1010F0008A89823080F08D819E81AF81B8858C0D88
:101100009D1DAE1DBF1D8093AB019093AC01A093BC
:10111000AD01B093AE0181E099CFDB01CA01E7E0F8
:10112000B695A79597958795EA95D1F7B8CF40E002
:10113000C701B6010E949C068111C6CF86CFB301BC
:10114000A2014F77552766277727440F551F440F75
:10115000551F41535E4FFA0180829182A282B38271
:10116000C2CF8F929F92AF92BF92CF92DF92EF92B7
:10117000FF920F931F93CF93DF93FC01818592859C
:10118000A385B4850196A11DB11D84179507A607F7
:10119000B70770F480E0DF91CF911F910F91FF901E
:1011A000EF90DF90CF90BF90AF909F908F90089579
:1011B00083889488A588B6888789803189F5BB277C
:1011C000A72F962F852FE9016A017B018F01BC01B2
:1011D000CD01680D791D8A1D9B1D80900C0190909A
:1011E0000D01A0900E01B0900F0186169706A8067B
:1011F000B90601F5F8018789803111F5DD24EE2467
:10120000FF24F601EE0FFF1FE153FE4F8081918115
:10121000B0E0A0E088839983AA83BB8381E0BBCF41
:10122000DB01CA01C7E0B695A79597958795CA9542
:10123000D1F7C9CF40E00E949C068111DBCFAACF35
:10124000E894C7F8DD24EE24FF24F601EE0FFF1F1B
:10125000EE0FFF1FE153FE4F80819181A281B38188
:10126000BF70D8CF2F923F924F925F926F927F9232
:101270008F929F92AF92BF92CF92DF92EF92FF92A6
:101280000F931F93CF93DF93EC014B018D8181115D
:1012900015C08FEF9FEFDF91CF911F910F91FF90BE
:1012A000EF90DF90CF90BF90AF909F908F907F9006
:1012B0006F905F904F903F902F9008958C8180FFAA
:1012C000E8CF4B895C896D897E898A859B85AC8551
:1012D000BD85412C481759076A077B0711F0442444
:1012E0004394512C52011E0126E0220E311CA11400
:1012F000B10409F4B3C04A855B856C857D856A01BC
:1013000081E0D8228B8D9C8D8A019B01E9E0369586
:10131000279517950795EA95D1F7ED81E230E1F52C
:10132000FC01628D738D848D958D600F711F821FFE
:10133000931F612C22E0722E6C187D08A614B7044E
:1013400008F435012C8126FD04C06114F2E07F060B
:1013500071F400910C0110910D0120910E0130915A
:101360000F01061717072807390709F053C040E097
:101370000E949C06882309F48CCFC60181539E4F9E
:10138000D4019C01260D371DFC012E173F0709F4DF
:1013900060C041914D93F9CFFC0174807A94702222
:1013A000C114D10471F471100CC0452B462B472B8E
:1013B00039F58F89988DA98DBA8D8E839F83A887E3
:1013C000B987EB8DFC8D6E817F8188859985625010
:1013D000710981099109258504C0660F771F881F4F
:1013E000991F2A95D2F70685178520893189600FC4
:1013F000711F821F931F670D711D811D911D99CF54
:101400004E815F816885798591010E94B1088111C3
:10141000D8CF3FCF740183019601AB01BC0180910D
:10142000CF039091D0030E943D05882309F431CF6A
:10143000860C971C8A859B85AC85BD85860D971D7E
:10144000A11DB11D8A879B87AC87BD87A618B708E9
:101450004ECF281B390B820E931EECCFC2011BCF3F
:101460008F929F92AF92BF92CF92DF92EF92FF92B4
:101470000F931F93CF93DF93EC018D8181110EC0E9
:1014800080E0DF91CF911F910F91FF90EF90DF905F
:10149000CF90BF90AF909F908F9008950B891C893B
:1014A0002D893E89041715072607370748F34A0197
:1014B0005B01823031F48A869B86AC86BD8681E0F2
:1014C000E0CF81149104A104B10449F41E821F826B
:1014D000188619861A861B861C861D86F0CF0A85FB
:1014E0001B852C853D85EB8DFC8D858590E00996CF
:1014F000B901A8014150510961097109082E04C0C0
:1015000076956795579547950A94D2F775016401CA
:10151000E1E0CE1AD108E108F10804C0F694E7949E
:10152000D794C7948A95D2F7C416D506E606F7066F
:1015300020F0012B022B032B11F58F89988DA98D9B
:10154000BA8D8E839F83A887B9878E010A5F1F4F4C
:10155000C114D104E104F10409F4ADCF4E815F81DF
:101560006885798598018B8D9C8D0E94B10891E0EA
:10157000C91AD108E108F1088111EACF81CFC41A54
:10158000D50AE60AF70AE1CF3F924F925F926F9237
:101590007F928F929F92AF92BF92CF92DF92EF9203
:1015A000FF920F931F93CF93DF93CDB7DEB72C97A6
:1015B0000FB6F894DEBF0FBECDBF5C01DC015B96B9
:1015C0008D909C905C9716964D905D906D907C9060
:1015D0001997411451046104710409F468C0BFEF04
:1015E0004B1A5B0A6B0A7B0A312CF40181859285C8
:1015F000A385B4859C01AD012F5F3F4F4F4F5F4FD7
:1016000029873A874B875C87730162011D821E829E
:101610001F821886F40181859285A385B4852D816A
:101620003E814F815885281739074A075B0708F024
:1016300056C089859A85AB85BC858C159D05AE0500
:10164000BF0550F482E0C82ED12CE12CF12C92E0A1
:10165000492E512C612C712C9E012F5F3F4FB701F9
:10166000A601C4010E94B1088823C9F189819A8129
:10167000AB81BC81892B8A2B8B2B09F12601370189
:101680009FEF491A590A690A790A2D813E814F81D3
:1016900058852F5F3F4F4F4F5F4F2D833E834F83C2
:1016A00058873FEFC31AD30AE30AF30AB3CFF40112
:1016B00040805180628073803324339496CFC41469
:1016C000D504E604F70409F70FEF1FEF2FEF3FE013
:1016D000B701A601C4010E940F08811119C080E062
:1016E0002C960FB6F894DEBF0FBECDBFDF91CF9121
:1016F0001F910F91FF90EF90DF90CF90BF90AF9030
:101700009F908F907F906F905F904F903F90089543
:10171000D50116964D915D916D917C91199741156A
:1017200051056105710539F097018601C4010E94D8
:101730000F088823A1F2D5011696CD92DD92ED9285
:10174000FC921997332051F0D701C6010196A11DD3
:10175000B11DF40180839183A283B383F50187894E
:10176000908DA18DB28D892B8A2B8B2B39F484819E
:10177000C78AD08EE18EF28E80688483F5018481E1
:101780008062848381E0ACCF1F93CF93DF93FC0111
:1017900025812223D1F1162FEC01848187FF2AC0F5
:1017A000668577858089918941E00E949C0688231F
:1017B00061F1EA8980E2E89FF0011124E153FE4FD4
:1017C000309719F18D81823040F48B899C89AD89E5
:1017D000BE89848F958FA68FB78F8F89988D938FB1
:1017E000828F8F89988DA98DBA8DB58BA48B8C81B2
:1017F0008F778C83111103C08C818F7E8C83812F16
:10180000DF91CF911F910C94710680E0DF91CF9111
:101810001F910895FF920F931F93CF93DF93EC01D5
:101820008D81813041F090E080E0DF91CF911F9178
:101830000F91FF9008958C8181FFF5CF82FD1BC031
:101840000091CF031091D003C8010E94CA040E94E6
:10185000A904F82EC8010E9497048FEFF812E3CF75
:101860008C8185FF1BC060E0CE010E94C40B8C817F
:101870008F7D8C83D8CF4B895C896D897E898A85E1
:101880009B85AC85BD8584179507A607B707C1F270
:10189000CE010E94300A8111D3CFC5CF4091AB0158
:1018A0005091AC016091AD017091AE01452B462B7A
:1018B000472B21F080E00E944D06B5CF80618C83DC
:1018C0002A853B85317080E092E0821B930BADCF7F
:1018D0002F923F924F925F926F927F928F929F9240
:1018E000AF92BF92CF92DF92EF92FF920F931F932E
:1018F000CF93DF9300D000D01F92CDB7DEB77C012D
:101900005B01342E5D83DC0115968C911597813037
:1019100009F0CEC014962C9021FECAC022FCB4C09F
:10192000C32CDD8022947FE027222094B22DB17059
:101930002B2ED7011A964D915D916D917C911D973B
:10194000C114D10409F428C15B968D919C915C97D8
:10195000FC0174807A948A019B0169E03695279591
:10196000179507956A95D1F770228A011170711049
:1019700020C001151105E9F416964D915D916D9108
:101980007C911997411551056105710509F099C0C0
:1019900057968D919D910D90BC91A02D0097A1051A
:1019A000B10509F0B0C0C7010E94C40A882309F438
:1019B0007FC080E092E0801B910B46018C159D0555
:1019C00008F44C01D7015B964D915C915C9716969B
:1019D0008D919D910D90BC91A02D0297A109B10907
:1019E000FA01258504C0880F991FAA1FBB1F2A95DD
:1019F000D2F74685578560897189840F951FA61F88
:101A0000B71F9C01AD01270D311D411D511D29013D
:101A10003A01811432E0930609F07BC080910C01F9
:101A200090910D01A0910E01B0910F0184159505C3
:101A3000A605B70559F48FEF9FEFDC0180930C01E9
:101A400090930D01A0930E01B0930F01022D95010B
:101A5000B301A2018091CF039091D0030E94DF05D2
:101A6000882331F19EEFB91AC818D908F701828589
:101A70009385A485B585880D991DA11DB11D82870B
:101A80009387A487B58755CFF70143895489658922
:101A9000768982859385A485B585481759076A0795
:101AA0007B0709F43DCFC7010E94300A811138CF6E
:101AB00081E090E0D70113969C938E93129780E07B
:101AC00007C09E012F5F3F4F0E94B108811102C0E5
:101AD00090E079C089819A81AB81BC81F701238D27
:101AE000348DF901278948EF5FEF60E070E0203125
:101AF00021F048EF5FEF6FEF7FE084179507A607AF
:101B0000B70708F050CFF70186839783A087B18786
:101B100050CF0115110599F5D7011A964D915D9198
:101B20006D917C911D9753968D919D910D90BC91D7
:101B3000A02D481759076A077B0708F181E00E942A
:101B40007106882309F4B4CF40920C0150920D0124
:101B500060920E0170920F018091AA0181608093C2
:101B6000AA01C80181539E4FD5019C01280D391D42
:101B7000FC012E173F0759F04D914193FACF41E0F8
:101B8000C301B2010E949C068111EBCF91CF281BAB
:101B9000390BA20EB31E68CFF70183899489A589FA
:101BA000B68984179507A607B70738F48481438B55
:101BB000548B658B768B80688483F701848183FDE9
:101BC0001AC0832D9D810F900F900F900F900F9052
:101BD000DF91CF911F910F91FF90EF90DF90CF9009
:101BE000BF90AF909F908F907F906F905F904F903D
:101BF0003F902F90089561E0C7010E94C40B882395
:101C000009F456CFDECFCF93DF931F92CDB7DEB767
:101C1000698341E050E0BE016F5F7F4F0E94680C16
:101C20000F90DF91CF9108950895FC01818D928DE1
:101C3000009719F061E00C94C40B0895DC015996EB
:101C4000ED91FC913097B9F083899489A589B68983
:101C50004285538564857585841B950BA60BB70B50
:101C6000811520E89207A105B10538F08FEF9FE7B5
:101C7000A0E0B0E0089590E080E00895CF93DF9376
:101C80001F92CDB7DEB7FC01818D928D009769F070
:101C9000BE016F5F7F4F0E943209019731F4898145
:101CA00090E00F90DF91CF9108958FEF9FEFF9CFE4
:101CB000EF92FF920F931F93CF93DF931F92CDB7B5
:101CC000DEB7FC01818D928D10E000E00097D1F02D
:101CD0007F01BE016F5F7F4F0E9432090FEF1FEF40
:101CE000019781F4098110E0F701818D928DFC014B
:101CF0004285538564857585415051096109710993
:101D00000E94300AC8010F90DF91CF911F910F916F
:101D1000FF90EF900895DC0159968D919C9100976A
:101D200039F0DC01ED91FC910480F581E02D0994FE
:101D300090E080E00895CF93DF93EC01E98DFA8D78
:101D4000309749F481E090E09B838A8390E080E0C3
:101D5000DF91CF91089513821282898D9A8D0E940E
:101D6000680CE98DFA8D22813381232B59F7F0CF4E
:101D7000CF93DF931F92CDB7DEB76983DC01ED917E
:101D8000FC910280F381E02D41E050E0BE016F5FE5
:101D90007F4F09950F90DF91CF9108950F931F9377
:101DA000CF93DF93EC01F894288139813327F9012F
:101DB000E853FF4F8491F901E959FE4F0491F9016D
:101DC000EA57FE4F1491112379F081110E94FD0210
:101DD000E12FF0E0EE0FFF1FE455FF4FA591B49106
:101DE000EC910E2381E009F480E08A838A818130BE
:101DF00061F40E94A8036F83788789879A87789413
:101E0000DF91CF911F910F9108958A818111F7CFB2
:101E10000E94A8030F81188529853A85601B710BE4
:101E2000820B930B6B837C838D839E83E8CF82E947
:101E300094E00C94CE0E87E894E00C94CE0EFC0156
:101E400001900020E9F73197AF01481B590BBC0105
:101E500081ED93E00C94FF038F929F92AF92BF921B
:101E60000F931F93CF93DF93CDB7DEB7A1970FB634
:101E7000F894DEBF0FBECDBF19A2423008F44AE08D
:101E80008E010F5D1F4F842E912CB12CA12CA5012A
:101E900094010E947B16E62FB901CA01EA30F4F4DE
:101EA000E05DD801EE938D01232B242B252B79F7B0
:101EB00090E080E0109719F0CD010E941F0FA196CD
:101EC0000FB6F894DEBF0FBECDBFDF91CF911F914B
:101ED0000F91BF90AF909F908F900895E95CE1CFF4
:101EE0001F920F920FB60F9211248F939F938091A0
:101EF000E1009091E100937F9093E10083FF0FC098
:101F00001092E90091E09093EB001092EC0092E3C4
:101F10009093ED001092CE0198E09093F00082FF34
:101F200022C093E09093E9009091F200992319F078
:101F30009AE39093E8009091BD01992341F090912C
:101F4000BD0191509093BD01911101C05D98909198
:101F5000CD01992341F09091CD0191509093CD0105
:101F6000911101C0289884FF18C08091E2008E7EF4
:101F700081608093E2008091E1008F7E8093E10098
:101F80008091BE018E7E80618093BE019F918F9172
:101F90000F900FBE0F901F90189580FFF7CF809184
:101FA000E2008E7E80618093E2008091E1008E7E6F
:101FB0008093E1008091BE018E7E8160E5CF1F920B
:101FC0000F920FB60F921124CF92DF92EF92FF92F1
:101FD0000F931F932F933F934F935F936F937F9331
:101FE0008F939F93AF93BF93EF93FF93CF93DF9321
:101FF000CDB7DEB76C97DEBFCDBF1092E900809100
:10200000E80083FF25C068E0CE0145960E944202A9
:1020100082EF8093E8008D8987FF39C09091E800B6
:1020200090FFFCCF982F907609F034C19E894F899C
:10203000588D2F89F88C911131C0803861F58091CD
:10204000BF018093F1001092F1008EEF8093E800C1
:102050006C960FB6F894DEBF0FBECDBFDF91CF9167
:10206000FF91EF91BF91AF919F918F917F916F9170
:102070005F914F913F912F911F910F91FF90EF90A2
:10208000DF90CF900F900FBE0F901F9018959EEF8E
:102090009093E800C7CF1092F100D5CF913059F45A
:1020A0008111D3CF4130510581F68091BF018D7FE1
:1020B0008093BF01CACF933049F48111C6CF41301C
:1020C000510519F68091BF018260F2CF953041F43D
:1020D0008091E80080FFFCCF20682093E300B5CF1B
:1020E000963009F0A9C00B8D1C8D22E01092E900FA
:1020F0001092BB011092BA01F2122EC01092B901D7
:102100001092B8010E9411021F8299E09983FA820D
:1021100091E09E8390EA98879AEF99872091BA017F
:102120003091BB01275F3F4F3C832B838D831092FF
:10213000E9001092BB011092BA011093B90100930B
:10214000B80149E050E0BE016F5F7F4F80E00E9420
:10215000EB010E94110279CF1093B9010093B801ED
:102160000E947601DC0112960D911C91011511055A
:1021700009F451C1D801ED91FC910480F581E02D65
:10218000BE016B5E7F4FC8010995009709F03EC103
:10219000F80100851185EACFF3E0FF120EC08F89A8
:1021A000882309F440C0823061F440E86DE08BE49C
:1021B00091E00E94B801811148CF81E28093EB0049
:1021C00047CF813029F440E86BE08FE391E0F1CF15
:1021D000833099F70E947601DC011296ED90FC9015
:1021E0008E010F5F1F4F6801E114F10479F0D701F0
:1021F000ED91FC910680F781E02DB801C7010995AA
:10220000080F111DF701E084F184EECFD8011C9274
:10221000F60101900020E9F73197BF016C197D09A3
:1022200040E0C601C6CF69E271E0FB01449150E095
:1022300080E80E94EB0109CF973009F4BECF9830B7
:1022400021F481E08093F10000CF993009F0FDCEB8
:10225000837009F0B2CFEBE1F1E081E031E096E389
:102260002191222371F08093E9003093EB00DF018C
:1022700011972C912093EC009093ED008F5F8730A5
:1022800079F78EE78093EA001092EA008F898093B5
:10229000CE01DBCE8B8D9C8D1092E9001092BB019C
:1022A0001092BA019093B9018093B801898D811180
:1022B00092C08E899D89913A49F4813209F07DCF8F
:1022C00047E050E064E071E080E0B3CF913209F084
:1022D00074CF833269F48F89988DB0E0A0E0809349
:1022E000000190930101A0930201B0930301ADCED0
:1022F000803269F48091E80082FFFCCF67E084E0DF
:1023000091E00E9442028BEF8093E8009ECE8232E1
:1023100009F09BCE8F8980930B01EEEFFFE785914B
:1023200094918B3F9C4D51F1E0E0F8E080910401E5
:1023300090910501A0910601B0910701803B944066
:10234000A105B105F1F480910B0180FD1AC0EE3FAB
:102350008AE0F80789F587E797E791838083809182
:1023600060008093BC0188E19BE00FB6F894A895CB
:10237000809360000FBE9093600067CEEEEFFAE0AE
:10238000D5CF808191818737974709F05ECEA89598
:10239000809160008861809360008091BC0180938F
:1023A0006000EE3F2AE0F20789F08091FE0A9091EA
:1023B000FF0A9183808349CE808191818737980776
:1023C00051F29093FF0A8093FE0AC5CF1092FF0A44
:1023D0001092FE0A3ACE0E947601DC0112960D910F
:1023E0001C910115110509F4E8CED801ED91FC917D
:1023F0000190F081E02DBE016B5E7F4FC801099511
:10240000811123CEF80100851185EBCF181619062E
:102410000CF41BCED2CEF1E0FF12BECE6DE271E025
:1024200004CF1F920F920FB60F9211242F933F9358
:102430008F939F93AF93BF938091B0019091B1011F
:10244000A091B201B091B3013091AF0123E0230F0D
:102450002D3758F50196A11DB11D2093AF01809332
:10246000B0019093B101A093B201B093B3018091F8
:10247000B4019091B501A091B601B091B701019658
:10248000A11DB11D8093B4019093B501A093B60135
:10249000B093B701BF91AF919F918F913F912F91D1
:1024A0000F900FBE0F901F90189526E8230F0296ED
:1024B000A11DB11DD2CF1F920F920FB60F92112402
:1024C0002F933F934F935F936F937F938F939F933C
:1024D000AF93BF93EF93FF93E0911801F09119012F
:1024E0000995FF91EF91BF91AF919F918F917F914E
:1024F0006F915F914F913F912F910F900FBE0F9071
:102500001F9018951F920F920FB60F9211242F93C0
:102510003F934F935F936F937F938F939F93AF936B
:10252000BF93EF93FF93E0911601F0911701099586
:10253000FF91EF91BF91AF919F918F917F916F919B
:102540005F914F913F912F910F900FBE0F901F9071
:1025500018951F920F920FB60F9211242F933F934D
:102560004F935F936F937F938F939F93AF93BF939B
:10257000EF93FF93E0911401F09115010995FF91FC
:10258000EF91BF91AF919F918F917F916F915F91EB
:102590004F913F912F910F900FBE0F901F90189564
:1025A0001F920F920FB60F9211242F933F934F93C8
:1025B0005F936F937F938F939F93AF93BF93EF93AB
:1025C000FF93E0911201F09113010995FF91EF91B2
:1025D000BF91AF919F918F917F916F915F914F913B
:1025E0003F912F910F900FBE0F901F9018951F9243
:1025F0000F920FB60F9211242F933F934F935F9337
:102600006F937F938F939F93AF93BF93EF93FF93BA
:10261000E0911001F09111010995FF91EF91BF91A7
:10262000AF919F918F917F916F915F914F913F916A
:102630002F910F900FBE0F901F901895CF92DF92A1
:10264000EF92FF92CF93DF93E1EDF3E013821282DA
:1026500088EEC82E83E0D82EE12CF12CC482D582DE
:10266000E682F78285E291E0918380838FEF9FEF8E
:1026700095878487E1E2F4E080E580831182E3E2DC
:10268000F4E0158216821186138682E090E0A0E0C5
:10269000B0E084879587A687B78713A215A614A6EE
:1026A00087E391E093A782A717A6C2E9D4E01A8234
:1026B0001B821C821D821E820E9484046F83788785
:1026C00089879A87C7E8D4E01A821B821C821D8200
:1026D0001E820E9484046F83788789879A87ECE63C
:1026E000F4E013821282C482D582E682F78283E408
:1026F00091E091838083128E118E1486DF91CF91A9
:10270000FF90EF90DF90CF900895CF93DF9300D0AC
:1027100000D0CDB7DEB7789484B5826084BD84B52F
:10272000816084BD85B5826085BD85B5816085BDCC
:1027300080916E00816080936E0010928100809184
:10274000810082608093810080918100816080930C
:102750008100809180008160809380008091910051
:1027600082608093910080919100816080939100BC
:10277000809190008160809390008091C10084607E
:102780008093C1008091C10082608093C1008091DC
:10279000C10081608093C1008091C30081608093FB
:1027A000C3008091C00082608093C0008091C2000D
:1027B00081608093C20080917A00846080937A0067
:1027C00080917A00826080937A0080917A008160A3
:1027D00080937A0080917A00806880937A001092CA
:1027E000CE011092BF011092BE018091D70081608E
:1027F0008093D70080EA8093D80089B5806189BD35
:1028000089B5826089BD09B400FEFDCF61E070E04A
:1028100080E090E00E94CD038091D8008F7C8061A1
:102820008093D8008091E000807F8093E0008091C9
:10283000E1008E7E8093E1008DE08093E200559A66
:10284000209A5D98289882E090E09093930480937A
:10285000920483E090E090938804809387048FEF44
:102860009FEF9093DE038093DD0360E082E00E949F
:10287000770360E0809187040E947703809192043F
:1028800090919304009709F4C4C08130910509F434
:10289000C2C08230910509F4C0C08330910509F4AB
:1028A000BEC0079729F484E067E17FE00E94FE0044
:1028B0008091870490918804009709F4B2C0813018
:1028C000910509F4B0C08230910509F4AEC083309F
:1028D000910509F4ACC0079729F484E06BE17FE02F
:1028E0000E94FE0081E591E00E941F0F809152043A
:1028F000882341F061E08DE494E00E94C40B8111D3
:102900001092520410922E0410922C04109229045A
:102910001092280484E0809327040E9484048B0191
:1029200061E0809127040E94770361E08091270491
:102930000E944903FFB6F8948091C001811127C01D
:10294000E7E9F1E08491E8E7F1E09491E82FF0E025
:10295000EE0FFF1FE75AFE4FA591B491EC91E923CA
:1029600021F461E081E10E94490361E081E10E947C
:1029700077038CB580618CBD8CB580648CBD61E0C3
:102980008FE00E94770361E080E10E9477038091ED
:10299000C0018F5F8093C001FFBE82E58093210458
:1029A0001092220480912104909122040E94C70475
:1029B0005AE0F52E8FEF0E94A204FA94F110FACF9C
:1029C00083E294E00E94CA0420E030E0A90160E0C4
:1029D00083E294E00E94E004F82E80932D0421E02D
:1029E000821739F10E948404601B710B613D7740AE
:1029F00058F381E08093280483E294E00E949704D6
:102A000081E891E00E941F0F8EE791E00E941F0F66
:102A1000FFCF82E049CF83E047CF81E045CF80E020
:102A200043CF82E05BCF83E059CF81E057CF80E096
:102A300055CF2AEA31E040E050E068E083E294E0DC
:102A40000E94E00482FF2AC0F0922E0480912E049E
:102A5000C12CD12C7601823029F4C12CD12CE12C4F
:102A600030E4F32E20E030E0A90167E383E294E054
:102A70000E94E004A701960169E283E294E00E94CB
:102A8000E00480932D048823D1F00E948404601B0D
:102A9000710B613D774030F388E0ACCF44E0F42E19
:102AA0000E94A90480932D04FA94F110F9CF8A3A78
:102AB00011F082E09FCF82E080932E04C7CF8091F7
:102AC0002E048230D1F420E030E0A9016AE383E2F1
:102AD00094E00E94E004882311F086E08BCF0E94EE
:102AE000A904807C803C19F483E080932E040E942A
:102AF000A9040E94A9040E94A90483E294E00E9410
:102B0000970480E5809321041092220481E00E94C2
:102B1000E606882309F488C080915204811170CFA1
:102B200080914604803109F086C082E0809352048F
:102B30001092640410926504109266041092670467
:102B40008091470490914804B0E0A0E025E0880F10
:102B5000991FAA1FBB1F2A95D1F7809360049093F9
:102B60006104A0936204B09363048FE294E09093B5
:102B700069048093680481E08093510410925304A7
:102B80001092540410925504109256041092570457
:102B9000109258041092590410925A0410925B0437
:102BA00010925C0410925D0410925E0410925F0417
:102BB00089E691E00E941F0F8EE791E00E941F0FAF
:102BC00000E010E088E991E00E941F0F60919504F9
:102BD0007091960480919704909198044AE00E9425
:102BE0002C0F8EE791E00E941F0F81EA91E00E9476
:102BF0001F0F60918A0470918B0480918C049091D6
:102C00008D044AE00E942C0F8EE791E00E941F0F76
:102C100064E670E080E090E00E94CD0301151105AC
:102C200089F20E940000CECF80E00E94E606882351
:102C300009F4E6CE71CF803209F0E2CE83E08093D2
:102C400052048091490490914A04A0914B04B091A0
:102C50004C048093640490936504A0936604B0933D
:102C6000670489839A83AB83BC83C12CD12C760102
:102C7000812C82E0982EA12CB12C49815A816B8144
:102C80007C819E012F5F3F4F8FE294E00E94B1084C
:102C9000882309F4B5CE80913C04A501940104C0B9
:102CA000220F331F441F551F8A95D2F7DA01C9013D
:102CB000C80ED91EEA1EFB1E49815A816B817C8198
:102CC00080914604803191F088EF9FEFAFEFBFE035
:102CD000481759076A077B0780F2C0926004D092B8
:102CE0006104E0926204F09263043FCF88EF9FEFAB
:102CF000A0E0B0E0EDCFA1E21A2EAA1BBB1BFD01A4
:102D00000DC0AA1FBB1FEE1FFF1FA217B307E407CA
:102D1000F50720F0A21BB30BE40BF50B661F771F22
:102D2000881F991F1A9469F7609570958095909502
:102D30009B01AC01BD01CF010895EE0FFF1F05906F
:102D4000F491E02D09940E94AE16A59F900DB49FBA
:102D5000900DA49F800D911D11240895A29FB00194
:102D6000B39FC001A39F700D811D1124911DB29FBF
:0E2D7000700D811D1124911D0895F894FFCF60
:102D7E00FFFFFFFF00E1000000000000FFFFFFFF6C
:102D8E009004900490049004900400C1808100008F
:102D9E0000000000007C02FF039D029202E302A1EC
:102DAE0002BF0200000000030E4F020A0C140E00B8
:102DBE00000000B80E9B0E8B0E150E1E0E3E0E580A
:102DCE000E496E697469616C697A696E6720534445
:102DDE0020636172642E2E2E00696E697469616CB7
:102DEE00697A6174696F6E20646F6E652E000D0ACC
:102DFE0000696E697469616C697A6174696F6E20BD
:102E0E006661696C656421005468727573743A204A
:082E1E0000417578313A2000F3
:00000001FF
